{
  "_format": "hh-sol-artifact-1",
  "contractName": "Reset",
  "sourceName": "contracts/Reset.sol",
  "abi": [
    {
      "anonymous": false,
      "inputs": [
        {
          "indexed": true,
          "internalType": "address",
          "name": "previousOwner",
          "type": "address"
        },
        {
          "indexed": true,
          "internalType": "address",
          "name": "newOwner",
          "type": "address"
        }
      ],
      "name": "OwnershipTransferred",
      "type": "event"
    },
    {
      "inputs": [
        {
          "internalType": "contract AthleteX",
          "name": "_axAddress",
          "type": "address"
        },
        {
          "internalType": "uint256",
          "name": "amount",
          "type": "uint256"
        }
      ],
      "name": "nuclearOption",
      "outputs": [],
      "stateMutability": "nonpayable",
      "type": "function"
    },
    {
      "inputs": [],
      "name": "owner",
      "outputs": [
        {
          "internalType": "address",
          "name": "",
          "type": "address"
        }
      ],
      "stateMutability": "view",
      "type": "function"
    },
    {
      "inputs": [
        {
          "internalType": "address",
          "name": "tokenAddress",
          "type": "address"
        },
        {
          "internalType": "uint256",
          "name": "tokenAmount",
          "type": "uint256"
        }
      ],
      "name": "recoverERC20",
      "outputs": [],
      "stateMutability": "nonpayable",
      "type": "function"
    },
    {
      "inputs": [],
      "name": "renounceOwnership",
      "outputs": [],
      "stateMutability": "nonpayable",
      "type": "function"
    },
    {
      "inputs": [
        {
          "internalType": "address",
          "name": "newOwner",
          "type": "address"
        }
      ],
      "name": "transferOwnership",
      "outputs": [],
      "stateMutability": "nonpayable",
      "type": "function"
    },
    {
      "inputs": [
        {
          "internalType": "contract AthleteX",
          "name": "_axAddress",
          "type": "address"
        },
        {
          "internalType": "address",
          "name": "axAddress",
          "type": "address"
        },
        {
          "internalType": "uint256",
          "name": "amount",
          "type": "uint256"
        }
      ],
      "name": "undo",
      "outputs": [],
      "stateMutability": "nonpayable",
      "type": "function"
    }
  ],
  "bytecode": "0x608060405234801561001057600080fd5b5061002d61002261003260201b60201c565b61003a60201b60201c565b6100fe565b600033905090565b60008060009054906101000a900473ffffffffffffffffffffffffffffffffffffffff169050816000806101000a81548173ffffffffffffffffffffffffffffffffffffffff021916908373ffffffffffffffffffffffffffffffffffffffff1602179055508173ffffffffffffffffffffffffffffffffffffffff168173ffffffffffffffffffffffffffffffffffffffff167f8be0079c531659141344cd1fd0a4f28419497f9722a3daafe3b4186f6b6457e060405160405180910390a35050565b610dae8061010d6000396000f3fe608060405234801561001057600080fd5b50600436106100625760003560e01c80631e465e0714610067578063542e488f14610083578063715018a61461009f5780638980f11f146100a95780638da5cb5b146100c5578063f2fde38b146100e3575b600080fd5b610081600480360381019061007c9190610838565b6100ff565b005b61009d60048036038101906100989190610887565b610223565b005b6100a76103b7565b005b6100c360048036038101906100be91906107d3565b61043f565b005b6100cd610554565b6040516100da91906109b0565b60405180910390f35b6100fd60048036038101906100f891906107aa565b61057d565b005b610107610675565b73ffffffffffffffffffffffffffffffffffffffff16610125610554565b73ffffffffffffffffffffffffffffffffffffffff161461017b576040517f08c379a000000000000000000000000000000000000000000000000000000000815260040161017290610a4b565b60405180910390fd5b8273ffffffffffffffffffffffffffffffffffffffff166323b872dd8333670de0b6b3a7640000856101ad9190610c08565b6040518463ffffffff1660e01b81526004016101cb939291906109cb565b602060405180830381600087803b1580156101e557600080fd5b505af11580156101f9573d6000803e3d6000fd5b505050506040513d601f19601f8201168201806040525081019061021d919061080f565b50505050565b60008273ffffffffffffffffffffffffffffffffffffffff1663313ce5676040518163ffffffff1660e01b815260040160206040518083038186803b15801561026b57600080fd5b505afa15801561027f573d6000803e3d6000fd5b505050506040513d601f19601f820116820180604052508101906102a391906108c3565b90508273ffffffffffffffffffffffffffffffffffffffff166340c10f196102c9610554565b83600a6102d69190610aea565b856102e19190610c08565b6040518363ffffffff1660e01b81526004016102fe929190610a02565b600060405180830381600087803b15801561031857600080fd5b505af115801561032c573d6000803e3d6000fd5b505050508273ffffffffffffffffffffffffffffffffffffffff166342966c6882600a6103599190610aea565b846103649190610c08565b6040518263ffffffff1660e01b81526004016103809190610a6b565b600060405180830381600087803b15801561039a57600080fd5b505af11580156103ae573d6000803e3d6000fd5b50505050505050565b6103bf610675565b73ffffffffffffffffffffffffffffffffffffffff166103dd610554565b73ffffffffffffffffffffffffffffffffffffffff1614610433576040517f08c379a000000000000000000000000000000000000000000000000000000000815260040161042a90610a4b565b60405180910390fd5b61043d600061067d565b565b610447610675565b73ffffffffffffffffffffffffffffffffffffffff16610465610554565b73ffffffffffffffffffffffffffffffffffffffff16146104bb576040517f08c379a00000000000000000000000000000000000000000000000000000000081526004016104b290610a4b565b60405180910390fd5b8173ffffffffffffffffffffffffffffffffffffffff1663a9059cbb6104df610554565b836040518363ffffffff1660e01b81526004016104fd929190610a02565b602060405180830381600087803b15801561051757600080fd5b505af115801561052b573d6000803e3d6000fd5b505050506040513d601f19601f8201168201806040525081019061054f919061080f565b505050565b60008060009054906101000a900473ffffffffffffffffffffffffffffffffffffffff16905090565b610585610675565b73ffffffffffffffffffffffffffffffffffffffff166105a3610554565b73ffffffffffffffffffffffffffffffffffffffff16146105f9576040517f08c379a00000000000000000000000000000000000000000000000000000000081526004016105f090610a4b565b60405180910390fd5b600073ffffffffffffffffffffffffffffffffffffffff168173ffffffffffffffffffffffffffffffffffffffff161415610669576040517f08c379a000000000000000000000000000000000000000000000000000000000815260040161066090610a2b565b60405180910390fd5b6106728161067d565b50565b600033905090565b60008060009054906101000a900473ffffffffffffffffffffffffffffffffffffffff169050816000806101000a81548173ffffffffffffffffffffffffffffffffffffffff021916908373ffffffffffffffffffffffffffffffffffffffff1602179055508173ffffffffffffffffffffffffffffffffffffffff168173ffffffffffffffffffffffffffffffffffffffff167f8be0079c531659141344cd1fd0a4f28419497f9722a3daafe3b4186f6b6457e060405160405180910390a35050565b60008135905061075081610d05565b92915050565b60008151905061076581610d1c565b92915050565b60008135905061077a81610d33565b92915050565b60008135905061078f81610d4a565b92915050565b6000815190506107a481610d61565b92915050565b6000602082840312156107bc57600080fd5b60006107ca84828501610741565b91505092915050565b600080604083850312156107e657600080fd5b60006107f485828601610741565b925050602061080585828601610780565b9150509250929050565b60006020828403121561082157600080fd5b600061082f84828501610756565b91505092915050565b60008060006060848603121561084d57600080fd5b600061085b8682870161076b565b935050602061086c86828701610741565b925050604061087d86828701610780565b9150509250925092565b6000806040838503121561089a57600080fd5b60006108a88582860161076b565b92505060206108b985828601610780565b9150509250929050565b6000602082840312156108d557600080fd5b60006108e384828501610795565b91505092915050565b6108f581610c62565b82525050565b6000610908602683610a86565b91507f4f776e61626c653a206e6577206f776e657220697320746865207a65726f206160008301527f64647265737300000000000000000000000000000000000000000000000000006020830152604082019050919050565b600061096e602083610a86565b91507f4f776e61626c653a2063616c6c6572206973206e6f7420746865206f776e65726000830152602082019050919050565b6109aa81610cb2565b82525050565b60006020820190506109c560008301846108ec565b92915050565b60006060820190506109e060008301866108ec565b6109ed60208301856108ec565b6109fa60408301846109a1565b949350505050565b6000604082019050610a1760008301856108ec565b610a2460208301846109a1565b9392505050565b60006020820190508181036000830152610a44816108fb565b9050919050565b60006020820190508181036000830152610a6481610961565b9050919050565b6000602082019050610a8060008301846109a1565b92915050565b600082825260208201905092915050565b6000808291508390505b6001851115610ae157808604811115610abd57610abc610cc9565b5b6001851615610acc5780820291505b8081029050610ada85610cf8565b9450610aa1565b94509492505050565b6000610af582610cb2565b9150610b0083610cbc565b9250610b2d7fffffffffffffffffffffffffffffffffffffffffffffffffffffffffffffffff8484610b35565b905092915050565b600082610b455760019050610c01565b81610b535760009050610c01565b8160018114610b695760028114610b7357610ba2565b6001915050610c01565b60ff841115610b8557610b84610cc9565b5b8360020a915084821115610b9c57610b9b610cc9565b5b50610c01565b5060208310610133831016604e8410600b8410161715610bd75782820a905083811115610bd257610bd1610cc9565b5b610c01565b610be48484846001610a97565b92509050818404811115610bfb57610bfa610cc9565b5b81810290505b9392505050565b6000610c1382610cb2565b9150610c1e83610cb2565b9250817fffffffffffffffffffffffffffffffffffffffffffffffffffffffffffffffff0483118215151615610c5757610c56610cc9565b5b828202905092915050565b6000610c6d82610c92565b9050919050565b60008115159050919050565b6000610c8b82610c62565b9050919050565b600073ffffffffffffffffffffffffffffffffffffffff82169050919050565b6000819050919050565b600060ff82169050919050565b7f4e487b7100000000000000000000000000000000000000000000000000000000600052601160045260246000fd5b60008160011c9050919050565b610d0e81610c62565b8114610d1957600080fd5b50565b610d2581610c74565b8114610d3057600080fd5b50565b610d3c81610c80565b8114610d4757600080fd5b50565b610d5381610cb2565b8114610d5e57600080fd5b50565b610d6a81610cbc565b8114610d7557600080fd5b5056fea26469706673582212204b703831d6de80ddc8d8ef58ef7a109d7512ff58695b94f2dee62795a9a9917b64736f6c63430008000033",
  "linkReferences": {},
  "deployedLinkReferences": {}
}