{
  "_format": "hh-sol-artifact-1",
  "contractName": "StakingRewards",
  "sourceName": "contracts/StakingRewards.sol",
  "abi": [
    {
      "inputs": [
        {
          "internalType": "address",
          "name": "_owner",
          "type": "address"
        },
        {
          "internalType": "address",
          "name": "_rewardsDistribution",
          "type": "address"
        },
        {
          "internalType": "address",
          "name": "_rewardsToken",
          "type": "address"
        },
        {
          "internalType": "address",
          "name": "_stakingToken",
          "type": "address"
        }
      ],
      "stateMutability": "nonpayable",
      "type": "constructor"
    },
    {
      "anonymous": false,
      "inputs": [
        {
          "indexed": false,
          "internalType": "address",
          "name": "oldOwner",
          "type": "address"
        },
        {
          "indexed": false,
          "internalType": "address",
          "name": "newOwner",
          "type": "address"
        }
      ],
      "name": "OwnerChanged",
      "type": "event"
    },
    {
      "anonymous": false,
      "inputs": [
        {
          "indexed": false,
          "internalType": "address",
          "name": "newOwner",
          "type": "address"
        }
      ],
      "name": "OwnerNominated",
      "type": "event"
    },
    {
      "anonymous": false,
      "inputs": [
        {
          "indexed": false,
          "internalType": "address",
          "name": "token",
          "type": "address"
        },
        {
          "indexed": false,
          "internalType": "uint256",
          "name": "amount",
          "type": "uint256"
        }
      ],
      "name": "Recovered",
      "type": "event"
    },
    {
      "anonymous": false,
      "inputs": [
        {
          "indexed": false,
          "internalType": "uint256",
          "name": "reward",
          "type": "uint256"
        }
      ],
      "name": "RewardAdded",
      "type": "event"
    },
    {
      "anonymous": false,
      "inputs": [
        {
          "indexed": true,
          "internalType": "address",
          "name": "user",
          "type": "address"
        },
        {
          "indexed": false,
          "internalType": "uint256",
          "name": "reward",
          "type": "uint256"
        }
      ],
      "name": "RewardPaid",
      "type": "event"
    },
    {
      "anonymous": false,
      "inputs": [
        {
          "indexed": false,
          "internalType": "uint256",
          "name": "newDuration",
          "type": "uint256"
        }
      ],
      "name": "RewardsDurationUpdated",
      "type": "event"
    },
    {
      "anonymous": false,
      "inputs": [
        {
          "indexed": true,
          "internalType": "address",
          "name": "user",
          "type": "address"
        },
        {
          "indexed": false,
          "internalType": "uint256",
          "name": "amount",
          "type": "uint256"
        }
      ],
      "name": "Staked",
      "type": "event"
    },
    {
      "anonymous": false,
      "inputs": [
        {
          "indexed": true,
          "internalType": "address",
          "name": "user",
          "type": "address"
        },
        {
          "indexed": false,
          "internalType": "uint256",
          "name": "amount",
          "type": "uint256"
        }
      ],
      "name": "Withdrawn",
      "type": "event"
    },
    {
      "inputs": [],
      "name": "acceptOwnership",
      "outputs": [],
      "stateMutability": "nonpayable",
      "type": "function"
    },
    {
      "inputs": [
        {
          "internalType": "address",
          "name": "account",
          "type": "address"
        }
      ],
      "name": "balanceOf",
      "outputs": [
        {
          "internalType": "uint256",
          "name": "",
          "type": "uint256"
        }
      ],
      "stateMutability": "view",
      "type": "function"
    },
    {
      "inputs": [
        {
          "internalType": "address",
          "name": "account",
          "type": "address"
        }
      ],
      "name": "earned",
      "outputs": [
        {
          "internalType": "uint256",
          "name": "",
          "type": "uint256"
        }
      ],
      "stateMutability": "view",
      "type": "function"
    },
    {
      "inputs": [],
      "name": "exit",
      "outputs": [],
      "stateMutability": "nonpayable",
      "type": "function"
    },
    {
      "inputs": [],
      "name": "getReward",
      "outputs": [],
      "stateMutability": "nonpayable",
      "type": "function"
    },
    {
      "inputs": [],
      "name": "getRewardForDuration",
      "outputs": [
        {
          "internalType": "uint256",
          "name": "",
          "type": "uint256"
        }
      ],
      "stateMutability": "view",
      "type": "function"
    },
    {
      "inputs": [],
      "name": "lastTimeRewardApplicable",
      "outputs": [
        {
          "internalType": "uint256",
          "name": "",
          "type": "uint256"
        }
      ],
      "stateMutability": "view",
      "type": "function"
    },
    {
      "inputs": [],
      "name": "lastUpdateTime",
      "outputs": [
        {
          "internalType": "uint256",
          "name": "",
          "type": "uint256"
        }
      ],
      "stateMutability": "view",
      "type": "function"
    },
    {
      "inputs": [
        {
          "internalType": "address",
          "name": "_owner",
          "type": "address"
        }
      ],
      "name": "nominateNewOwner",
      "outputs": [],
      "stateMutability": "nonpayable",
      "type": "function"
    },
    {
      "inputs": [],
      "name": "nominatedOwner",
      "outputs": [
        {
          "internalType": "address",
          "name": "",
          "type": "address"
        }
      ],
      "stateMutability": "view",
      "type": "function"
    },
    {
      "inputs": [
        {
          "internalType": "uint256",
          "name": "reward",
          "type": "uint256"
        },
        {
          "internalType": "uint256",
          "name": "duration",
          "type": "uint256"
        }
      ],
      "name": "notifyRewardAmount",
      "outputs": [],
      "stateMutability": "nonpayable",
      "type": "function"
    },
    {
      "inputs": [],
      "name": "owner",
      "outputs": [
        {
          "internalType": "address",
          "name": "",
          "type": "address"
        }
      ],
      "stateMutability": "view",
      "type": "function"
    },
    {
      "inputs": [],
      "name": "periodFinish",
      "outputs": [
        {
          "internalType": "uint256",
          "name": "",
          "type": "uint256"
        }
      ],
      "stateMutability": "view",
      "type": "function"
    },
    {
      "inputs": [
        {
          "internalType": "address",
          "name": "tokenAddress",
          "type": "address"
        },
        {
          "internalType": "uint256",
          "name": "tokenAmount",
          "type": "uint256"
        }
      ],
      "name": "recoverERC20",
      "outputs": [],
      "stateMutability": "nonpayable",
      "type": "function"
    },
    {
      "inputs": [],
      "name": "rewardPerToken",
      "outputs": [
        {
          "internalType": "uint256",
          "name": "",
          "type": "uint256"
        }
      ],
      "stateMutability": "view",
      "type": "function"
    },
    {
      "inputs": [],
      "name": "rewardPerTokenStored",
      "outputs": [
        {
          "internalType": "uint256",
          "name": "",
          "type": "uint256"
        }
      ],
      "stateMutability": "view",
      "type": "function"
    },
    {
      "inputs": [],
      "name": "rewardRate",
      "outputs": [
        {
          "internalType": "uint256",
          "name": "",
          "type": "uint256"
        }
      ],
      "stateMutability": "view",
      "type": "function"
    },
    {
      "inputs": [
        {
          "internalType": "address",
          "name": "",
          "type": "address"
        }
      ],
      "name": "rewards",
      "outputs": [
        {
          "internalType": "uint256",
          "name": "",
          "type": "uint256"
        }
      ],
      "stateMutability": "view",
      "type": "function"
    },
    {
      "inputs": [],
      "name": "rewardsDistribution",
      "outputs": [
        {
          "internalType": "address",
          "name": "",
          "type": "address"
        }
      ],
      "stateMutability": "view",
      "type": "function"
    },
    {
      "inputs": [],
      "name": "rewardsDuration",
      "outputs": [
        {
          "internalType": "uint256",
          "name": "",
          "type": "uint256"
        }
      ],
      "stateMutability": "view",
      "type": "function"
    },
    {
      "inputs": [],
      "name": "rewardsToken",
      "outputs": [
        {
          "internalType": "contract IERC20",
          "name": "",
          "type": "address"
        }
      ],
      "stateMutability": "view",
      "type": "function"
    },
    {
      "inputs": [
        {
          "internalType": "uint256",
          "name": "_rewardsDuration",
          "type": "uint256"
        }
      ],
      "name": "setRewardsDuration",
      "outputs": [],
      "stateMutability": "nonpayable",
      "type": "function"
    },
    {
      "inputs": [
        {
          "internalType": "uint256",
          "name": "amount",
          "type": "uint256"
        }
      ],
      "name": "stake",
      "outputs": [],
      "stateMutability": "nonpayable",
      "type": "function"
    },
    {
      "inputs": [],
      "name": "stakingToken",
      "outputs": [
        {
          "internalType": "contract IERC20",
          "name": "",
          "type": "address"
        }
      ],
      "stateMutability": "view",
      "type": "function"
    },
    {
      "inputs": [],
      "name": "totalSupply",
      "outputs": [
        {
          "internalType": "uint256",
          "name": "",
          "type": "uint256"
        }
      ],
      "stateMutability": "view",
      "type": "function"
    },
    {
      "inputs": [
        {
          "internalType": "uint256",
          "name": "timestamp",
          "type": "uint256"
        }
      ],
      "name": "updatePeriodFinish",
      "outputs": [],
      "stateMutability": "nonpayable",
      "type": "function"
    },
    {
      "inputs": [
        {
          "internalType": "address",
          "name": "",
          "type": "address"
        }
      ],
      "name": "userRewardPerTokenPaid",
      "outputs": [
        {
          "internalType": "uint256",
          "name": "",
          "type": "uint256"
        }
      ],
      "stateMutability": "view",
      "type": "function"
    },
    {
      "inputs": [
        {
          "internalType": "uint256",
          "name": "amount",
          "type": "uint256"
        }
      ],
      "name": "withdraw",
      "outputs": [],
      "stateMutability": "nonpayable",
      "type": "function"
    }
  ],
  "bytecode": "0x608060405260006006556000600755620d2f006008553480156200002257600080fd5b5060405162002f8f38038062002f8f833981810160405281019062000048919062000224565b8360018081905550600073ffffffffffffffffffffffffffffffffffffffff168173ffffffffffffffffffffffffffffffffffffffff161415620000c3576040517f08c379a0000000000000000000000000000000000000000000000000000000008152600401620000ba9062000310565b60405180910390fd5b80600260006101000a81548173ffffffffffffffffffffffffffffffffffffffff021916908373ffffffffffffffffffffffffffffffffffffffff1602179055507fb532073b38c83145e3e5135377a08bf9aab55bc0fd7c1179cd4fb995d2a5159c60008260405162000138929190620002e3565b60405180910390a15081600460006101000a81548173ffffffffffffffffffffffffffffffffffffffff021916908373ffffffffffffffffffffffffffffffffffffffff16021790555080600560006101000a81548173ffffffffffffffffffffffffffffffffffffffff021916908373ffffffffffffffffffffffffffffffffffffffff160217905550826000806101000a81548173ffffffffffffffffffffffffffffffffffffffff021916908373ffffffffffffffffffffffffffffffffffffffff1602179055505050505062000391565b6000815190506200021e8162000377565b92915050565b600080600080608085870312156200023b57600080fd5b60006200024b878288016200020d565b94505060206200025e878288016200020d565b935050604062000271878288016200020d565b925050606062000284878288016200020d565b91505092959194509250565b6200029b8162000343565b82525050565b6000620002b060198362000332565b91507f4f776e657220616464726573732063616e6e6f742062652030000000000000006000830152602082019050919050565b6000604082019050620002fa600083018562000290565b62000309602083018462000290565b9392505050565b600060208201905081810360008301526200032b81620002a1565b9050919050565b600082825260208201905092915050565b6000620003508262000357565b9050919050565b600073ffffffffffffffffffffffffffffffffffffffff82169050919050565b620003828162000343565b81146200038e57600080fd5b50565b612bee80620003a16000396000f3fe608060405234801561001057600080fd5b50600436106101c35760003560e01c806379ba5097116100f9578063c8f33c9111610097578063d1af0c7d11610071578063d1af0c7d146104aa578063df136d65146104c8578063e9fad8ee146104e6578063ebe2b12b146104f0576101c3565b8063c8f33c9114610452578063cc1a378f14610470578063cd3daf9d1461048c576101c3565b80638980f11f116100d35780638980f11f146103cc5780638b876347146103e85780638da5cb5b14610418578063a694fc3a14610436576101c3565b806379ba5097146103865780637b0a47ee1461039057806380faa57d146103ae576101c3565b8063386a95251161016657806353a47bb71161014057806353a47bb7146102fe578063556f6e6b1461031c57806370a082311461033857806372f702f314610368576101c3565b8063386a9525146102b85780633d18b912146102d65780633fc6df6e146102e0576101c3565b806318160ddd116101a257806318160ddd146102445780631c1f78eb14610262578063246132f9146102805780632e1a7d4d1461029c576101c3565b80628cc262146101c85780630700037d146101f85780631627540c14610228575b600080fd5b6101e260048036038101906101dd9190611f9f565b61050e565b6040516101ef919061291f565b60405180910390f35b610212600480360381019061020d9190611f9f565b61062c565b60405161021f919061291f565b60405180910390f35b610242600480360381019061023d9190611f9f565b610644565b005b61024c6106c7565b604051610259919061291f565b60405180910390f35b61026a6106d1565b604051610277919061291f565b60405180910390f35b61029a6004803603810190610295919061207f565b6106ef565b005b6102b660048036038101906102b1919061202d565b610a58565b005b6102c0610de3565b6040516102cd919061291f565b60405180910390f35b6102de610de9565b005b6102e8611064565b6040516102f59190612660565b60405180910390f35b610306611088565b6040516103139190612660565b60405180910390f35b6103366004803603810190610331919061202d565b6110ae565b005b610352600480360381019061034d9190611f9f565b6111a6565b60405161035f919061291f565b60405180910390f35b6103706111ef565b60405161037d9190612704565b60405180910390f35b61038e611215565b005b6103986113c9565b6040516103a5919061291f565b60405180910390f35b6103b66113cf565b6040516103c3919061291f565b60405180910390f35b6103e660048036038101906103e19190611fc8565b6113e2565b005b61040260048036038101906103fd9190611f9f565b611505565b60405161040f919061291f565b60405180910390f35b61042061151d565b60405161042d9190612660565b60405180910390f35b610450600480360381019061044b919061202d565b611543565b005b61045a6118d0565b604051610467919061291f565b60405180910390f35b61048a6004803603810190610485919061202d565b6118d6565b005b610494611965565b6040516104a1919061291f565b60405180910390f35b6104b26119f3565b6040516104bf9190612704565b60405180910390f35b6104d0611a19565b6040516104dd919061291f565b60405180910390f35b6104ee611a1f565b005b6104f8611a71565b604051610505919061291f565b60405180910390f35b6000610625600c60008473ffffffffffffffffffffffffffffffffffffffff1673ffffffffffffffffffffffffffffffffffffffff16815260200190815260200160002054610617670de0b6b3a76400006106096105bb600b60008973ffffffffffffffffffffffffffffffffffffffff1673ffffffffffffffffffffffffffffffffffffffff168152602001908152602001600020546105ad611965565b611a7790919063ffffffff16565b600e60008973ffffffffffffffffffffffffffffffffffffffff1673ffffffffffffffffffffffffffffffffffffffff16815260200190815260200160002054611ad690919063ffffffff16565b611b5190919063ffffffff16565b611baf90919063ffffffff16565b9050919050565b600c6020528060005260406000206000915090505481565b61064c611c0d565b80600360006101000a81548173ffffffffffffffffffffffffffffffffffffffff021916908373ffffffffffffffffffffffffffffffffffffffff1602179055507f906a1c6bd7e3091ea86693dd029a831c19049ce77f1dce2ce0bab1cacbabce22816040516106bc9190612660565b60405180910390a150565b6000600d54905090565b60006106ea600854600754611ad690919063ffffffff16565b905090565b60008054906101000a900473ffffffffffffffffffffffffffffffffffffffff1673ffffffffffffffffffffffffffffffffffffffff163373ffffffffffffffffffffffffffffffffffffffff161461077d576040517f08c379a00000000000000000000000000000000000000000000000000000000081526004016107749061287f565b60405180910390fd5b6000610787611965565b600a819055506107956113cf565b600981905550600073ffffffffffffffffffffffffffffffffffffffff168173ffffffffffffffffffffffffffffffffffffffff1614610862576107d88161050e565b600c60008373ffffffffffffffffffffffffffffffffffffffff1673ffffffffffffffffffffffffffffffffffffffff16815260200190815260200160002081905550600a54600b60008373ffffffffffffffffffffffffffffffffffffffff1673ffffffffffffffffffffffffffffffffffffffff168152602001908152602001600020819055505b60009150600654421061088f5761088460085484611b5190919063ffffffff16565b6007819055506108f1565b60006108a642600654611a7790919063ffffffff16565b905060006108bf60075483611ad690919063ffffffff16565b90506108e86008546108da8388611baf90919063ffffffff16565b611b5190919063ffffffff16565b60078190555050505b6000600460009054906101000a900473ffffffffffffffffffffffffffffffffffffffff1673ffffffffffffffffffffffffffffffffffffffff166370a08231306040518263ffffffff1660e01b815260040161094e9190612660565b60206040518083038186803b15801561096657600080fd5b505afa15801561097a573d6000803e3d6000fd5b505050506040513d601f19601f8201168201806040525081019061099e9190612056565b90506109b560085482611b5190919063ffffffff16565b60075411156109f9576040517f08c379a00000000000000000000000000000000000000000000000000000000081526004016109f09061285f565b60405180910390fd5b42600981905550610a1560085442611baf90919063ffffffff16565b6006819055507fde88a922e0d3b88b24e9623efeb464919c6bf9f66857a65e2bfcf2ce87a9433d84604051610a4a919061291f565b60405180910390a150505050565b6001806000828254610a6a9190612961565b925050819055506000600154905033610a81611965565b600a81905550610a8f6113cf565b600981905550600073ffffffffffffffffffffffffffffffffffffffff168173ffffffffffffffffffffffffffffffffffffffff1614610b5c57610ad28161050e565b600c60008373ffffffffffffffffffffffffffffffffffffffff1673ffffffffffffffffffffffffffffffffffffffff16815260200190815260200160002081905550600a54600b60008373ffffffffffffffffffffffffffffffffffffffff1673ffffffffffffffffffffffffffffffffffffffff168152602001908152602001600020819055505b60008311610b9f576040517f08c379a0000000000000000000000000000000000000000000000000000000008152600401610b969061281f565b60405180910390fd5b610bb483600d54611a7790919063ffffffff16565b600d81905550610c0c83600e60003373ffffffffffffffffffffffffffffffffffffffff1673ffffffffffffffffffffffffffffffffffffffff16815260200190815260200160002054611a7790919063ffffffff16565b600e60003373ffffffffffffffffffffffffffffffffffffffff1673ffffffffffffffffffffffffffffffffffffffff16815260200190815260200160002081905550600560009054906101000a900473ffffffffffffffffffffffffffffffffffffffff1673ffffffffffffffffffffffffffffffffffffffff1663095ea7b333856040518363ffffffff1660e01b8152600401610cac9291906126db565b602060405180830381600087803b158015610cc657600080fd5b505af1158015610cda573d6000803e3d6000fd5b505050506040513d601f19601f82011682018060405250810190610cfe9190612004565b50610d4c3384600560009054906101000a900473ffffffffffffffffffffffffffffffffffffffff1673ffffffffffffffffffffffffffffffffffffffff16611c9f9092919063ffffffff16565b3373ffffffffffffffffffffffffffffffffffffffff167f7084f5476618d8e60b11ef0d7d3f06914655adb8793e28ff7f018d4c76d505d584604051610d92919061291f565b60405180910390a2506001548114610ddf576040517f08c379a0000000000000000000000000000000000000000000000000000000008152600401610dd6906128bf565b60405180910390fd5b5050565b60085481565b6001806000828254610dfb9190612961565b925050819055506000600154905033610e12611965565b600a81905550610e206113cf565b600981905550600073ffffffffffffffffffffffffffffffffffffffff168173ffffffffffffffffffffffffffffffffffffffff1614610eed57610e638161050e565b600c60008373ffffffffffffffffffffffffffffffffffffffff1673ffffffffffffffffffffffffffffffffffffffff16815260200190815260200160002081905550600a54600b60008373ffffffffffffffffffffffffffffffffffffffff1673ffffffffffffffffffffffffffffffffffffffff168152602001908152602001600020819055505b6000600c60003373ffffffffffffffffffffffffffffffffffffffff1673ffffffffffffffffffffffffffffffffffffffff168152602001908152602001600020549050600081111561101b576000600c60003373ffffffffffffffffffffffffffffffffffffffff1673ffffffffffffffffffffffffffffffffffffffff16815260200190815260200160002081905550610fcc3382600460009054906101000a900473ffffffffffffffffffffffffffffffffffffffff1673ffffffffffffffffffffffffffffffffffffffff16611c9f9092919063ffffffff16565b3373ffffffffffffffffffffffffffffffffffffffff167fe2403640ba68fed3a2f88b7557551d1993f84b99bb10ff833f0cf8db0c5e048682604051611012919061291f565b60405180910390a25b50506001548114611061576040517f08c379a0000000000000000000000000000000000000000000000000000000008152600401611058906128bf565b60405180910390fd5b50565b60008054906101000a900473ffffffffffffffffffffffffffffffffffffffff1681565b600360009054906101000a900473ffffffffffffffffffffffffffffffffffffffff1681565b6110b6611c0d565b60006110c0611965565b600a819055506110ce6113cf565b600981905550600073ffffffffffffffffffffffffffffffffffffffff168173ffffffffffffffffffffffffffffffffffffffff161461119b576111118161050e565b600c60008373ffffffffffffffffffffffffffffffffffffffff1673ffffffffffffffffffffffffffffffffffffffff16815260200190815260200160002081905550600a54600b60008373ffffffffffffffffffffffffffffffffffffffff1673ffffffffffffffffffffffffffffffffffffffff168152602001908152602001600020819055505b816006819055505050565b6000600e60008373ffffffffffffffffffffffffffffffffffffffff1673ffffffffffffffffffffffffffffffffffffffff168152602001908152602001600020549050919050565b600560009054906101000a900473ffffffffffffffffffffffffffffffffffffffff1681565b600360009054906101000a900473ffffffffffffffffffffffffffffffffffffffff1673ffffffffffffffffffffffffffffffffffffffff163373ffffffffffffffffffffffffffffffffffffffff16146112a5576040517f08c379a000000000000000000000000000000000000000000000000000000000815260040161129c9061273f565b60405180910390fd5b7fb532073b38c83145e3e5135377a08bf9aab55bc0fd7c1179cd4fb995d2a5159c600260009054906101000a900473ffffffffffffffffffffffffffffffffffffffff16600360009054906101000a900473ffffffffffffffffffffffffffffffffffffffff1660405161131a92919061267b565b60405180910390a1600360009054906101000a900473ffffffffffffffffffffffffffffffffffffffff16600260006101000a81548173ffffffffffffffffffffffffffffffffffffffff021916908373ffffffffffffffffffffffffffffffffffffffff1602179055506000600360006101000a81548173ffffffffffffffffffffffffffffffffffffffff021916908373ffffffffffffffffffffffffffffffffffffffff160217905550565b60075481565b60006113dd42600654611d25565b905090565b6113ea611c0d565b600560009054906101000a900473ffffffffffffffffffffffffffffffffffffffff1673ffffffffffffffffffffffffffffffffffffffff168273ffffffffffffffffffffffffffffffffffffffff16141561147b576040517f08c379a0000000000000000000000000000000000000000000000000000000008152600401611472906128df565b60405180910390fd5b6114c8600260009054906101000a900473ffffffffffffffffffffffffffffffffffffffff16828473ffffffffffffffffffffffffffffffffffffffff16611c9f9092919063ffffffff16565b7f8c1256b8896378cd5044f80c202f9772b9d77dc85c8a6eb51967210b09bfaa2882826040516114f99291906126db565b60405180910390a15050565b600b6020528060005260406000206000915090505481565b600260009054906101000a900473ffffffffffffffffffffffffffffffffffffffff1681565b60018060008282546115559190612961565b92505081905550600060015490503361156c611965565b600a8190555061157a6113cf565b600981905550600073ffffffffffffffffffffffffffffffffffffffff168173ffffffffffffffffffffffffffffffffffffffff1614611647576115bd8161050e565b600c60008373ffffffffffffffffffffffffffffffffffffffff1673ffffffffffffffffffffffffffffffffffffffff16815260200190815260200160002081905550600a54600b60008373ffffffffffffffffffffffffffffffffffffffff1673ffffffffffffffffffffffffffffffffffffffff168152602001908152602001600020819055505b6000831161168a576040517f08c379a00000000000000000000000000000000000000000000000000000000081526004016116819061275f565b60405180910390fd5b61169f83600d54611baf90919063ffffffff16565b600d819055506116f783600e60003373ffffffffffffffffffffffffffffffffffffffff1673ffffffffffffffffffffffffffffffffffffffff16815260200190815260200160002054611baf90919063ffffffff16565b600e60003373ffffffffffffffffffffffffffffffffffffffff1673ffffffffffffffffffffffffffffffffffffffff16815260200190815260200160002081905550600560009054906101000a900473ffffffffffffffffffffffffffffffffffffffff1673ffffffffffffffffffffffffffffffffffffffff1663095ea7b333856040518363ffffffff1660e01b81526004016117979291906126db565b602060405180830381600087803b1580156117b157600080fd5b505af11580156117c5573d6000803e3d6000fd5b505050506040513d601f19601f820116820180604052508101906117e99190612004565b50611839333085600560009054906101000a900473ffffffffffffffffffffffffffffffffffffffff1673ffffffffffffffffffffffffffffffffffffffff16611d3e909392919063ffffffff16565b3373ffffffffffffffffffffffffffffffffffffffff167f9e71bc8eea02a63969f509818f2dafb9254532904319f9dbda79b67bd34a5f3d8460405161187f919061291f565b60405180910390a25060015481146118cc576040517f08c379a00000000000000000000000000000000000000000000000000000000081526004016118c3906128bf565b60405180910390fd5b5050565b60095481565b6118de611c0d565b6006544211611922576040517f08c379a00000000000000000000000000000000000000000000000000000000081526004016119199061271f565b60405180910390fd5b806008819055507ffb46ca5a5e06d4540d6387b930a7c978bce0db5f449ec6b3f5d07c6e1d44f2d360085460405161195a919061291f565b60405180910390a150565b600080600d54141561197b57600a5490506119f0565b6119ed6119dc600d546119ce670de0b6b3a76400006119c06007546119b26009546119a46113cf565b611a7790919063ffffffff16565b611ad690919063ffffffff16565b611ad690919063ffffffff16565b611b5190919063ffffffff16565b600a54611baf90919063ffffffff16565b90505b90565b600460009054906101000a900473ffffffffffffffffffffffffffffffffffffffff1681565b600a5481565b611a67600e60003373ffffffffffffffffffffffffffffffffffffffff1673ffffffffffffffffffffffffffffffffffffffff16815260200190815260200160002054610a58565b611a6f610de9565b565b60065481565b600082821115611abc576040517f08c379a0000000000000000000000000000000000000000000000000000000008152600401611ab3906127bf565b60405180910390fd5b60008284611aca9190612a42565b90508091505092915050565b600080831415611ae95760009050611b4b565b60008284611af791906129e8565b9050828482611b0691906129b7565b14611b46576040517f08c379a0000000000000000000000000000000000000000000000000000000008152600401611b3d9061283f565b60405180910390fd5b809150505b92915050565b6000808211611b95576040517f08c379a0000000000000000000000000000000000000000000000000000000008152600401611b8c906127df565b60405180910390fd5b60008284611ba391906129b7565b90508091505092915050565b6000808284611bbe9190612961565b905083811015611c03576040517f08c379a0000000000000000000000000000000000000000000000000000000008152600401611bfa9061277f565b60405180910390fd5b8091505092915050565b600260009054906101000a900473ffffffffffffffffffffffffffffffffffffffff1673ffffffffffffffffffffffffffffffffffffffff163373ffffffffffffffffffffffffffffffffffffffff1614611c9d576040517f08c379a0000000000000000000000000000000000000000000000000000000008152600401611c94906127ff565b60405180910390fd5b565b611d208363a9059cbb60e01b8484604051602401611cbe9291906126db565b604051602081830303815290604052907bffffffffffffffffffffffffffffffffffffffffffffffffffffffff19166020820180517bffffffffffffffffffffffffffffffffffffffffffffffffffffffff8381831617835250505050611dc7565b505050565b6000818310611d345781611d36565b825b905092915050565b611dc1846323b872dd60e01b858585604051602401611d5f939291906126a4565b604051602081830303815290604052907bffffffffffffffffffffffffffffffffffffffffffffffffffffffff19166020820180517bffffffffffffffffffffffffffffffffffffffffffffffffffffffff8381831617835250505050611dc7565b50505050565b611de68273ffffffffffffffffffffffffffffffffffffffff16611f38565b611e25576040517f08c379a0000000000000000000000000000000000000000000000000000000008152600401611e1c906128ff565b60405180910390fd5b6000808373ffffffffffffffffffffffffffffffffffffffff1683604051611e4d9190612649565b6000604051808303816000865af19150503d8060008114611e8a576040519150601f19603f3d011682016040523d82523d6000602084013e611e8f565b606091505b509150915081611ed4576040517f08c379a0000000000000000000000000000000000000000000000000000000008152600401611ecb9061279f565b60405180910390fd5b600081511115611f325780806020019051810190611ef29190612004565b611f31576040517f08c379a0000000000000000000000000000000000000000000000000000000008152600401611f289061289f565b60405180910390fd5b5b50505050565b600080823b905060008111915050919050565b600081359050611f5a81612b73565b92915050565b600081519050611f6f81612b8a565b92915050565b600081359050611f8481612ba1565b92915050565b600081519050611f9981612ba1565b92915050565b600060208284031215611fb157600080fd5b6000611fbf84828501611f4b565b91505092915050565b60008060408385031215611fdb57600080fd5b6000611fe985828601611f4b565b9250506020611ffa85828601611f75565b9150509250929050565b60006020828403121561201657600080fd5b600061202484828501611f60565b91505092915050565b60006020828403121561203f57600080fd5b600061204d84828501611f75565b91505092915050565b60006020828403121561206857600080fd5b600061207684828501611f8a565b91505092915050565b6000806040838503121561209257600080fd5b60006120a085828601611f75565b92505060206120b185828601611f75565b9150509250929050565b6120c481612a76565b82525050565b60006120d58261293a565b6120df8185612945565b93506120ef818560208601612ae2565b80840191505092915050565b61210481612abe565b82525050565b6000612117605883612950565b91507f50726576696f7573207265776172647320706572696f64206d7573742062652060008301527f636f6d706c657465206265666f7265206368616e67696e67207468652064757260208301527f6174696f6e20666f7220746865206e657720706572696f6400000000000000006040830152606082019050919050565b60006121a3603583612950565b91507f596f75206d757374206265206e6f6d696e61746564206265666f726520796f7560008301527f2063616e20616363657074206f776e65727368697000000000000000000000006020830152604082019050919050565b6000612209600e83612950565b91507f43616e6e6f74207374616b6520300000000000000000000000000000000000006000830152602082019050919050565b6000612249601b83612950565b91507f536166654d6174683a206164646974696f6e206f766572666c6f7700000000006000830152602082019050919050565b6000612289602083612950565b91507f5361666545524332303a206c6f772d6c6576656c2063616c6c206661696c65646000830152602082019050919050565b60006122c9601e83612950565b91507f536166654d6174683a207375627472616374696f6e206f766572666c6f7700006000830152602082019050919050565b6000612309601a83612950565b91507f536166654d6174683a206469766973696f6e206279207a65726f0000000000006000830152602082019050919050565b6000612349602f83612950565b91507f4f6e6c792074686520636f6e7472616374206f776e6572206d6179207065726660008301527f6f726d207468697320616374696f6e00000000000000000000000000000000006020830152604082019050919050565b60006123af601183612950565b91507f43616e6e6f7420776974686472617720300000000000000000000000000000006000830152602082019050919050565b60006123ef602183612950565b91507f536166654d6174683a206d756c7469706c69636174696f6e206f766572666c6f60008301527f77000000000000000000000000000000000000000000000000000000000000006020830152604082019050919050565b6000612455601883612950565b91507f50726f76696465642072657761726420746f6f206869676800000000000000006000830152602082019050919050565b6000612495602a83612950565b91507f43616c6c6572206973206e6f742052657761726473446973747269627574696f60008301527f6e20636f6e7472616374000000000000000000000000000000000000000000006020830152604082019050919050565b60006124fb602a83612950565b91507f5361666545524332303a204552433230206f7065726174696f6e20646964206e60008301527f6f742073756363656564000000000000000000000000000000000000000000006020830152604082019050919050565b6000612561601f83612950565b91507f5265656e7472616e637947756172643a207265656e7472616e742063616c6c006000830152602082019050919050565b60006125a1602183612950565b91507f43616e6e6f7420776974686472617720746865207374616b696e6720746f6b6560008301527f6e000000000000000000000000000000000000000000000000000000000000006020830152604082019050919050565b6000612607601f83612950565b91507f5361666545524332303a2063616c6c20746f206e6f6e2d636f6e7472616374006000830152602082019050919050565b61264381612ab4565b82525050565b600061265582846120ca565b915081905092915050565b600060208201905061267560008301846120bb565b92915050565b600060408201905061269060008301856120bb565b61269d60208301846120bb565b9392505050565b60006060820190506126b960008301866120bb565b6126c660208301856120bb565b6126d3604083018461263a565b949350505050565b60006040820190506126f060008301856120bb565b6126fd602083018461263a565b9392505050565b600060208201905061271960008301846120fb565b92915050565b600060208201905081810360008301526127388161210a565b9050919050565b6000602082019050818103600083015261275881612196565b9050919050565b60006020820190508181036000830152612778816121fc565b9050919050565b600060208201905081810360008301526127988161223c565b9050919050565b600060208201905081810360008301526127b88161227c565b9050919050565b600060208201905081810360008301526127d8816122bc565b9050919050565b600060208201905081810360008301526127f8816122fc565b9050919050565b600060208201905081810360008301526128188161233c565b9050919050565b60006020820190508181036000830152612838816123a2565b9050919050565b60006020820190508181036000830152612858816123e2565b9050919050565b6000602082019050818103600083015261287881612448565b9050919050565b6000602082019050818103600083015261289881612488565b9050919050565b600060208201905081810360008301526128b8816124ee565b9050919050565b600060208201905081810360008301526128d881612554565b9050919050565b600060208201905081810360008301526128f881612594565b9050919050565b60006020820190508181036000830152612918816125fa565b9050919050565b6000602082019050612934600083018461263a565b92915050565b600081519050919050565b600081905092915050565b600082825260208201905092915050565b600061296c82612ab4565b915061297783612ab4565b9250827fffffffffffffffffffffffffffffffffffffffffffffffffffffffffffffffff038211156129ac576129ab612b15565b5b828201905092915050565b60006129c282612ab4565b91506129cd83612ab4565b9250826129dd576129dc612b44565b5b828204905092915050565b60006129f382612ab4565b91506129fe83612ab4565b9250817fffffffffffffffffffffffffffffffffffffffffffffffffffffffffffffffff0483118215151615612a3757612a36612b15565b5b828202905092915050565b6000612a4d82612ab4565b9150612a5883612ab4565b925082821015612a6b57612a6a612b15565b5b828203905092915050565b6000612a8182612a94565b9050919050565b60008115159050919050565b600073ffffffffffffffffffffffffffffffffffffffff82169050919050565b6000819050919050565b6000612ac982612ad0565b9050919050565b6000612adb82612a94565b9050919050565b60005b83811015612b00578082015181840152602081019050612ae5565b83811115612b0f576000848401525b50505050565b7f4e487b7100000000000000000000000000000000000000000000000000000000600052601160045260246000fd5b7f4e487b7100000000000000000000000000000000000000000000000000000000600052601260045260246000fd5b612b7c81612a76565b8114612b8757600080fd5b50565b612b9381612a88565b8114612b9e57600080fd5b50565b612baa81612ab4565b8114612bb557600080fd5b5056fea2646970667358221220242c593dd0b008346920090b8ddc9afa04a3f0a11ded01b3bab52c85780ffd1764736f6c63430008000033",
  "linkReferences": {},
  "deployedLinkReferences": {}
}