{
  "_format": "hh-sol-artifact-1",
  "contractName": "Vesting",
  "sourceName": "contracts/Vesting.sol",
  "abi": [
    {
      "inputs": [],
      "stateMutability": "nonpayable",
      "type": "constructor"
    },
    {
      "anonymous": false,
      "inputs": [
        {
          "indexed": true,
          "internalType": "address",
          "name": "previousOwner",
          "type": "address"
        },
        {
          "indexed": true,
          "internalType": "address",
          "name": "newOwner",
          "type": "address"
        }
      ],
      "name": "OwnershipTransferred",
      "type": "event"
    },
    {
      "inputs": [],
      "name": "AX",
      "outputs": [
        {
          "internalType": "contract IERC20",
          "name": "",
          "type": "address"
        }
      ],
      "stateMutability": "view",
      "type": "function"
    },
    {
      "inputs": [],
      "name": "end",
      "outputs": [
        {
          "internalType": "uint256",
          "name": "",
          "type": "uint256"
        }
      ],
      "stateMutability": "view",
      "type": "function"
    },
    {
      "inputs": [],
      "name": "owner",
      "outputs": [
        {
          "internalType": "address",
          "name": "",
          "type": "address"
        }
      ],
      "stateMutability": "view",
      "type": "function"
    },
    {
      "inputs": [
        {
          "internalType": "address",
          "name": "_addr",
          "type": "address"
        }
      ],
      "name": "releasableAmount",
      "outputs": [
        {
          "internalType": "uint256",
          "name": "",
          "type": "uint256"
        }
      ],
      "stateMutability": "view",
      "type": "function"
    },
    {
      "inputs": [],
      "name": "renounceOwnership",
      "outputs": [],
      "stateMutability": "nonpayable",
      "type": "function"
    },
    {
      "inputs": [],
      "name": "start",
      "outputs": [
        {
          "internalType": "uint256",
          "name": "",
          "type": "uint256"
        }
      ],
      "stateMutability": "view",
      "type": "function"
    },
    {
      "inputs": [
        {
          "internalType": "address",
          "name": "newOwner",
          "type": "address"
        }
      ],
      "name": "transferOwnership",
      "outputs": [],
      "stateMutability": "nonpayable",
      "type": "function"
    },
    {
      "inputs": [],
      "name": "vest",
      "outputs": [],
      "stateMutability": "nonpayable",
      "type": "function"
    }
  ],
  "bytecode": "0x6080604052636157bd206001556368dddca060025534801561002057600080fd5b5061003d6100326101ce60201b60201c565b6101d660201b60201c565b6a058a5e8186b67a5a4c00006004600073e8a59f004d2a14b3c6fd2df93c1b609ddbda981373ffffffffffffffffffffffffffffffffffffffff1673ffffffffffffffffffffffffffffffffffffffff168152602001908152602001600020819055506a01cea9e09d42832cac00006004600073a93e39e1f2c87b407e723fe9135e3571e1a4472073ffffffffffffffffffffffffffffffffffffffff1673ffffffffffffffffffffffffffffffffffffffff168152602001908152602001600020819055506a01ae2938d76a166108000060046000733266f39e8b1f6dec962c3903aefebda602c4b2b173ffffffffffffffffffffffffffffffffffffffff1673ffffffffffffffffffffffffffffffffffffffff168152602001908152602001600020819055506a058a5e8186b67a5a4c0000600460007336a9941835335aa6dbe69af6bbfab778c0992f8773ffffffffffffffffffffffffffffffffffffffff1673ffffffffffffffffffffffffffffffffffffffff1681526020019081526020016000208190555061029a565b600033905090565b60008060009054906101000a900473ffffffffffffffffffffffffffffffffffffffff169050816000806101000a81548173ffffffffffffffffffffffffffffffffffffffff021916908373ffffffffffffffffffffffffffffffffffffffff1602179055508173ffffffffffffffffffffffffffffffffffffffff168173ffffffffffffffffffffffffffffffffffffffff167f8be0079c531659141344cd1fd0a4f28419497f9722a3daafe3b4186f6b6457e060405160405180910390a35050565b6111fd806102a96000396000f3fe608060405234801561001057600080fd5b50600436106100885760003560e01c80638da5cb5b1161005b5780638da5cb5b146100ef578063be9a65551461010d578063efbe1c1c1461012b578063f2fde38b1461014957610088565b80631726cbc81461008d578063458efde3146100bd578063715018a6146100c757806371c13df2146100d1575b600080fd5b6100a760048036038101906100a29190610a36565b610165565b6040516100b49190610f29565b60405180910390f35b6100c56101c1565b005b6100cf6103a8565b005b6100d9610430565b6040516100e69190610dec565b60405180910390f35b6100f7610448565b6040516101049190610da8565b60405180910390f35b610115610471565b6040516101229190610f29565b60405180910390f35b610133610477565b6040516101409190610f29565b60405180910390f35b610163600480360381019061015e9190610a36565b61047d565b005b6000600360008373ffffffffffffffffffffffffffffffffffffffff1673ffffffffffffffffffffffffffffffffffffffff168152602001908152602001600020546101b083610575565b6101ba9190611057565b9050919050565b6000600460003373ffffffffffffffffffffffffffffffffffffffff1673ffffffffffffffffffffffffffffffffffffffff1681526020019081526020016000205411610243576040517f08c379a000000000000000000000000000000000000000000000000000000000815260040161023a90610ec9565b60405180910390fd5b600154421015610288576040517f08c379a000000000000000000000000000000000000000000000000000000000815260040161027f90610e29565b60405180910390fd5b600061029333610165565b9050600081116102d8576040517f08c379a00000000000000000000000000000000000000000000000000000000081526004016102cf90610e69565b60405180910390fd5b80600360003373ffffffffffffffffffffffffffffffffffffffff1673ffffffffffffffffffffffffffffffffffffffff168152602001908152602001600020546103239190610f76565b600360003373ffffffffffffffffffffffffffffffffffffffff1673ffffffffffffffffffffffffffffffffffffffff168152602001908152602001600020819055506103a53382735617604ba0a30e0ff1d2163ab94e50d8b6d0b0df73ffffffffffffffffffffffffffffffffffffffff1661064d9092919063ffffffff16565b50565b6103b06106d3565b73ffffffffffffffffffffffffffffffffffffffff166103ce610448565b73ffffffffffffffffffffffffffffffffffffffff1614610424576040517f08c379a000000000000000000000000000000000000000000000000000000000815260040161041b90610ea9565b60405180910390fd5b61042e60006106db565b565b735617604ba0a30e0ff1d2163ab94e50d8b6d0b0df81565b60008060009054906101000a900473ffffffffffffffffffffffffffffffffffffffff16905090565b60015481565b60025481565b6104856106d3565b73ffffffffffffffffffffffffffffffffffffffff166104a3610448565b73ffffffffffffffffffffffffffffffffffffffff16146104f9576040517f08c379a00000000000000000000000000000000000000000000000000000000081526004016104f090610ea9565b60405180910390fd5b600073ffffffffffffffffffffffffffffffffffffffff168173ffffffffffffffffffffffffffffffffffffffff161415610569576040517f08c379a000000000000000000000000000000000000000000000000000000000815260040161056090610e49565b60405180910390fd5b610572816106db565b50565b600060025442116106055760006001546002546105929190611057565b90506000600154426105a49190611057565b90508181600460008773ffffffffffffffffffffffffffffffffffffffff1673ffffffffffffffffffffffffffffffffffffffff168152602001908152602001600020546105f29190610ffd565b6105fc9190610fcc565b92505050610648565b600460008373ffffffffffffffffffffffffffffffffffffffff1673ffffffffffffffffffffffffffffffffffffffff1681526020019081526020016000205490505b919050565b6106ce8363a9059cbb60e01b848460405160240161066c929190610dc3565b604051602081830303815290604052907bffffffffffffffffffffffffffffffffffffffffffffffffffffffff19166020820180517bffffffffffffffffffffffffffffffffffffffffffffffffffffffff838183161783525050505061079f565b505050565b600033905090565b60008060009054906101000a900473ffffffffffffffffffffffffffffffffffffffff169050816000806101000a81548173ffffffffffffffffffffffffffffffffffffffff021916908373ffffffffffffffffffffffffffffffffffffffff1602179055508173ffffffffffffffffffffffffffffffffffffffff168173ffffffffffffffffffffffffffffffffffffffff167f8be0079c531659141344cd1fd0a4f28419497f9722a3daafe3b4186f6b6457e060405160405180910390a35050565b6000610801826040518060400160405280602081526020017f5361666545524332303a206c6f772d6c6576656c2063616c6c206661696c65648152508573ffffffffffffffffffffffffffffffffffffffff166108669092919063ffffffff16565b905060008151111561086157808060200190518101906108219190610a5f565b610860576040517f08c379a000000000000000000000000000000000000000000000000000000000815260040161085790610f09565b60405180910390fd5b5b505050565b6060610875848460008561087e565b90509392505050565b6060824710156108c3576040517f08c379a00000000000000000000000000000000000000000000000000000000081526004016108ba90610e89565b60405180910390fd5b6108cc85610992565b61090b576040517f08c379a000000000000000000000000000000000000000000000000000000000815260040161090290610ee9565b60405180910390fd5b6000808673ffffffffffffffffffffffffffffffffffffffff1685876040516109349190610d91565b60006040518083038185875af1925050503d8060008114610971576040519150601f19603f3d011682016040523d82523d6000602084013e610976565b606091505b50915091506109868282866109a5565b92505050949350505050565b600080823b905060008111915050919050565b606083156109b557829050610a05565b6000835111156109c85782518084602001fd5b816040517f08c379a00000000000000000000000000000000000000000000000000000000081526004016109fc9190610e07565b60405180910390fd5b9392505050565b600081359050610a1b81611199565b92915050565b600081519050610a30816111b0565b92915050565b600060208284031215610a4857600080fd5b6000610a5684828501610a0c565b91505092915050565b600060208284031215610a7157600080fd5b6000610a7f84828501610a21565b91505092915050565b610a918161108b565b82525050565b6000610aa282610f44565b610aac8185610f5a565b9350610abc8185602086016110f7565b80840191505092915050565b610ad1816110d3565b82525050565b6000610ae282610f4f565b610aec8185610f65565b9350610afc8185602086016110f7565b610b0581611188565b840191505092915050565b6000610b1d601183610f65565b91507f56657374696e673a2021737461727465640000000000000000000000000000006000830152602082019050919050565b6000610b5d602683610f65565b91507f4f776e61626c653a206e6577206f776e657220697320746865207a65726f206160008301527f64647265737300000000000000000000000000000000000000000000000000006020830152604082019050919050565b6000610bc3601d83610f65565b91507f56657374696e673a206e6f20746f6b656e7320746f2072656c656173650000006000830152602082019050919050565b6000610c03602683610f65565b91507f416464726573733a20696e73756666696369656e742062616c616e636520666f60008301527f722063616c6c00000000000000000000000000000000000000000000000000006020830152604082019050919050565b6000610c69602083610f65565b91507f4f776e61626c653a2063616c6c6572206973206e6f7420746865206f776e65726000830152602082019050919050565b6000610ca9601d83610f65565b91507f56657374696e673a206e6f2076657374696e67207363686564756c65210000006000830152602082019050919050565b6000610ce9601d83610f65565b91507f416464726573733a2063616c6c20746f206e6f6e2d636f6e74726163740000006000830152602082019050919050565b6000610d29602a83610f65565b91507f5361666545524332303a204552433230206f7065726174696f6e20646964206e60008301527f6f742073756363656564000000000000000000000000000000000000000000006020830152604082019050919050565b610d8b816110c9565b82525050565b6000610d9d8284610a97565b915081905092915050565b6000602082019050610dbd6000830184610a88565b92915050565b6000604082019050610dd86000830185610a88565b610de56020830184610d82565b9392505050565b6000602082019050610e016000830184610ac8565b92915050565b60006020820190508181036000830152610e218184610ad7565b905092915050565b60006020820190508181036000830152610e4281610b10565b9050919050565b60006020820190508181036000830152610e6281610b50565b9050919050565b60006020820190508181036000830152610e8281610bb6565b9050919050565b60006020820190508181036000830152610ea281610bf6565b9050919050565b60006020820190508181036000830152610ec281610c5c565b9050919050565b60006020820190508181036000830152610ee281610c9c565b9050919050565b60006020820190508181036000830152610f0281610cdc565b9050919050565b60006020820190508181036000830152610f2281610d1c565b9050919050565b6000602082019050610f3e6000830184610d82565b92915050565b600081519050919050565b600081519050919050565b600081905092915050565b600082825260208201905092915050565b6000610f81826110c9565b9150610f8c836110c9565b9250827fffffffffffffffffffffffffffffffffffffffffffffffffffffffffffffffff03821115610fc157610fc061112a565b5b828201905092915050565b6000610fd7826110c9565b9150610fe2836110c9565b925082610ff257610ff1611159565b5b828204905092915050565b6000611008826110c9565b9150611013836110c9565b9250817fffffffffffffffffffffffffffffffffffffffffffffffffffffffffffffffff048311821515161561104c5761104b61112a565b5b828202905092915050565b6000611062826110c9565b915061106d836110c9565b9250828210156110805761107f61112a565b5b828203905092915050565b6000611096826110a9565b9050919050565b60008115159050919050565b600073ffffffffffffffffffffffffffffffffffffffff82169050919050565b6000819050919050565b60006110de826110e5565b9050919050565b60006110f0826110a9565b9050919050565b60005b838110156111155780820151818401526020810190506110fa565b83811115611124576000848401525b50505050565b7f4e487b7100000000000000000000000000000000000000000000000000000000600052601160045260246000fd5b7f4e487b7100000000000000000000000000000000000000000000000000000000600052601260045260246000fd5b6000601f19601f8301169050919050565b6111a28161108b565b81146111ad57600080fd5b50565b6111b98161109d565b81146111c457600080fd5b5056fea2646970667358221220129e724c6ed0514eccad4de8f55ce2cb4b51bd90c65ed26579d483fa330c62a864736f6c63430008000033",
  "linkReferences": {},
  "deployedLinkReferences": {}
}